{
  "contractName": "SolnSquareVerifier",
  "abi": [
    {
      "inputs": [],
      "payable": false,
      "stateMutability": "nonpayable",
      "type": "constructor"
    },
    {
      "anonymous": false,
      "inputs": [
        {
          "indexed": true,
          "internalType": "address",
          "name": "owner",
          "type": "address"
        },
        {
          "indexed": true,
          "internalType": "address",
          "name": "approved",
          "type": "address"
        },
        {
          "indexed": true,
          "internalType": "uint256",
          "name": "tokenId",
          "type": "uint256"
        }
      ],
      "name": "Approval",
      "type": "event"
    },
    {
      "anonymous": false,
      "inputs": [
        {
          "indexed": true,
          "internalType": "address",
          "name": "owner",
          "type": "address"
        },
        {
          "indexed": true,
          "internalType": "address",
          "name": "operator",
          "type": "address"
        },
        {
          "indexed": false,
          "internalType": "bool",
          "name": "approved",
          "type": "bool"
        }
      ],
      "name": "ApprovalForAll",
      "type": "event"
    },
    {
      "anonymous": false,
      "inputs": [
        {
          "indexed": true,
          "internalType": "address",
          "name": "previousOwner",
          "type": "address"
        },
        {
          "indexed": true,
          "internalType": "address",
          "name": "newOwner",
          "type": "address"
        }
      ],
      "name": "OwnershipTransferred",
      "type": "event"
    },
    {
      "anonymous": false,
      "inputs": [
        {
          "indexed": false,
          "internalType": "address",
          "name": "sender",
          "type": "address"
        }
      ],
      "name": "Paused",
      "type": "event"
    },
    {
      "anonymous": false,
      "inputs": [
        {
          "indexed": false,
          "internalType": "uint256",
          "name": "index",
          "type": "uint256"
        },
        {
          "indexed": false,
          "internalType": "address",
          "name": "client",
          "type": "address"
        }
      ],
      "name": "SolutionAdded",
      "type": "event"
    },
    {
      "anonymous": false,
      "inputs": [
        {
          "indexed": true,
          "internalType": "address",
          "name": "from",
          "type": "address"
        },
        {
          "indexed": true,
          "internalType": "address",
          "name": "to",
          "type": "address"
        },
        {
          "indexed": true,
          "internalType": "uint256",
          "name": "tokenId",
          "type": "uint256"
        }
      ],
      "name": "Transfer",
      "type": "event"
    },
    {
      "anonymous": false,
      "inputs": [
        {
          "indexed": false,
          "internalType": "address",
          "name": "sender",
          "type": "address"
        }
      ],
      "name": "UnPaused",
      "type": "event"
    },
    {
      "constant": false,
      "inputs": [
        {
          "internalType": "bytes32",
          "name": "_myid",
          "type": "bytes32"
        },
        {
          "internalType": "string",
          "name": "_result",
          "type": "string"
        }
      ],
      "name": "__callback",
      "outputs": [],
      "payable": false,
      "stateMutability": "nonpayable",
      "type": "function"
    },
    {
      "constant": false,
      "inputs": [
        {
          "internalType": "bytes32",
          "name": "_myid",
          "type": "bytes32"
        },
        {
          "internalType": "string",
          "name": "_result",
          "type": "string"
        },
        {
          "internalType": "bytes",
          "name": "_proof",
          "type": "bytes"
        }
      ],
      "name": "__callback",
      "outputs": [],
      "payable": false,
      "stateMutability": "nonpayable",
      "type": "function"
    },
    {
      "constant": false,
      "inputs": [
        {
          "internalType": "address",
          "name": "to",
          "type": "address"
        },
        {
          "internalType": "uint256",
          "name": "tokenId",
          "type": "uint256"
        }
      ],
      "name": "approve",
      "outputs": [],
      "payable": false,
      "stateMutability": "nonpayable",
      "type": "function"
    },
    {
      "constant": true,
      "inputs": [
        {
          "internalType": "address",
          "name": "owner",
          "type": "address"
        }
      ],
      "name": "balanceOf",
      "outputs": [
        {
          "internalType": "uint256",
          "name": "",
          "type": "uint256"
        }
      ],
      "payable": false,
      "stateMutability": "view",
      "type": "function"
    },
    {
      "constant": true,
      "inputs": [
        {
          "internalType": "uint256",
          "name": "tokenId",
          "type": "uint256"
        }
      ],
      "name": "getApproved",
      "outputs": [
        {
          "internalType": "address",
          "name": "",
          "type": "address"
        }
      ],
      "payable": false,
      "stateMutability": "view",
      "type": "function"
    },
    {
      "constant": true,
      "inputs": [],
      "name": "getBaseTokenURI",
      "outputs": [
        {
          "internalType": "string",
          "name": "",
          "type": "string"
        }
      ],
      "payable": false,
      "stateMutability": "view",
      "type": "function"
    },
    {
      "constant": true,
      "inputs": [],
      "name": "getName",
      "outputs": [
        {
          "internalType": "string",
          "name": "",
          "type": "string"
        }
      ],
      "payable": false,
      "stateMutability": "view",
      "type": "function"
    },
    {
      "constant": true,
      "inputs": [],
      "name": "getOwner",
      "outputs": [
        {
          "internalType": "address",
          "name": "",
          "type": "address"
        }
      ],
      "payable": false,
      "stateMutability": "view",
      "type": "function"
    },
    {
      "constant": true,
      "inputs": [],
      "name": "getSymbol",
      "outputs": [
        {
          "internalType": "string",
          "name": "",
          "type": "string"
        }
      ],
      "payable": false,
      "stateMutability": "view",
      "type": "function"
    },
    {
      "constant": true,
      "inputs": [
        {
          "internalType": "address",
          "name": "owner",
          "type": "address"
        },
        {
          "internalType": "address",
          "name": "operator",
          "type": "address"
        }
      ],
      "name": "isApprovedForAll",
      "outputs": [
        {
          "internalType": "bool",
          "name": "",
          "type": "bool"
        }
      ],
      "payable": false,
      "stateMutability": "view",
      "type": "function"
    },
    {
      "constant": false,
      "inputs": [
        {
          "internalType": "address",
          "name": "to",
          "type": "address"
        },
        {
          "internalType": "uint256",
          "name": "tokenId",
          "type": "uint256"
        }
      ],
      "name": "mint",
      "outputs": [
        {
          "internalType": "bool",
          "name": "",
          "type": "bool"
        }
      ],
      "payable": false,
      "stateMutability": "nonpayable",
      "type": "function"
    },
    {
      "constant": true,
      "inputs": [
        {
          "internalType": "uint256",
          "name": "tokenId",
          "type": "uint256"
        }
      ],
      "name": "ownerOf",
      "outputs": [
        {
          "internalType": "address",
          "name": "",
          "type": "address"
        }
      ],
      "payable": false,
      "stateMutability": "view",
      "type": "function"
    },
    {
      "constant": false,
      "inputs": [
        {
          "internalType": "address",
          "name": "from",
          "type": "address"
        },
        {
          "internalType": "address",
          "name": "to",
          "type": "address"
        },
        {
          "internalType": "uint256",
          "name": "tokenId",
          "type": "uint256"
        }
      ],
      "name": "safeTransferFrom",
      "outputs": [],
      "payable": false,
      "stateMutability": "nonpayable",
      "type": "function"
    },
    {
      "constant": false,
      "inputs": [
        {
          "internalType": "address",
          "name": "from",
          "type": "address"
        },
        {
          "internalType": "address",
          "name": "to",
          "type": "address"
        },
        {
          "internalType": "uint256",
          "name": "tokenId",
          "type": "uint256"
        },
        {
          "internalType": "bytes",
          "name": "_data",
          "type": "bytes"
        }
      ],
      "name": "safeTransferFrom",
      "outputs": [],
      "payable": false,
      "stateMutability": "nonpayable",
      "type": "function"
    },
    {
      "constant": false,
      "inputs": [
        {
          "internalType": "address",
          "name": "to",
          "type": "address"
        },
        {
          "internalType": "bool",
          "name": "approved",
          "type": "bool"
        }
      ],
      "name": "setApprovalForAll",
      "outputs": [],
      "payable": false,
      "stateMutability": "nonpayable",
      "type": "function"
    },
    {
      "constant": false,
      "inputs": [
        {
          "internalType": "bool",
          "name": "flag",
          "type": "bool"
        }
      ],
      "name": "setPaused",
      "outputs": [],
      "payable": false,
      "stateMutability": "nonpayable",
      "type": "function"
    },
    {
      "constant": true,
      "inputs": [
        {
          "internalType": "bytes4",
          "name": "interfaceId",
          "type": "bytes4"
        }
      ],
      "name": "supportsInterface",
      "outputs": [
        {
          "internalType": "bool",
          "name": "",
          "type": "bool"
        }
      ],
      "payable": false,
      "stateMutability": "view",
      "type": "function"
    },
    {
      "constant": true,
      "inputs": [
        {
          "internalType": "uint256",
          "name": "index",
          "type": "uint256"
        }
      ],
      "name": "tokenByIndex",
      "outputs": [
        {
          "internalType": "uint256",
          "name": "",
          "type": "uint256"
        }
      ],
      "payable": false,
      "stateMutability": "view",
      "type": "function"
    },
    {
      "constant": true,
      "inputs": [
        {
          "internalType": "address",
          "name": "owner",
          "type": "address"
        },
        {
          "internalType": "uint256",
          "name": "index",
          "type": "uint256"
        }
      ],
      "name": "tokenOfOwnerByIndex",
      "outputs": [
        {
          "internalType": "uint256",
          "name": "",
          "type": "uint256"
        }
      ],
      "payable": false,
      "stateMutability": "view",
      "type": "function"
    },
    {
      "constant": true,
      "inputs": [
        {
          "internalType": "uint256",
          "name": "tokenId",
          "type": "uint256"
        }
      ],
      "name": "tokenURI",
      "outputs": [
        {
          "internalType": "string",
          "name": "",
          "type": "string"
        }
      ],
      "payable": false,
      "stateMutability": "view",
      "type": "function"
    },
    {
      "constant": true,
      "inputs": [],
      "name": "totalSupply",
      "outputs": [
        {
          "internalType": "uint256",
          "name": "",
          "type": "uint256"
        }
      ],
      "payable": false,
      "stateMutability": "view",
      "type": "function"
    },
    {
      "constant": false,
      "inputs": [
        {
          "internalType": "address",
          "name": "from",
          "type": "address"
        },
        {
          "internalType": "address",
          "name": "to",
          "type": "address"
        },
        {
          "internalType": "uint256",
          "name": "tokenId",
          "type": "uint256"
        }
      ],
      "name": "transferFrom",
      "outputs": [],
      "payable": false,
      "stateMutability": "nonpayable",
      "type": "function"
    },
    {
      "constant": false,
      "inputs": [
        {
          "internalType": "address",
          "name": "newOwner",
          "type": "address"
        }
      ],
      "name": "transferOwnership",
      "outputs": [],
      "payable": false,
      "stateMutability": "nonpayable",
      "type": "function"
    },
    {
      "constant": false,
      "inputs": [
        {
          "internalType": "uint256",
          "name": "index",
          "type": "uint256"
        },
        {
          "internalType": "address",
          "name": "clientAddress",
          "type": "address"
        }
      ],
      "name": "addSolution",
      "outputs": [],
      "payable": false,
      "stateMutability": "nonpayable",
      "type": "function"
    },
    {
      "constant": false,
      "inputs": [
        {
          "internalType": "address",
          "name": "to",
          "type": "address"
        },
        {
          "internalType": "uint256",
          "name": "tokenId",
          "type": "uint256"
        },
        {
          "internalType": "uint256[2]",
          "name": "a",
          "type": "uint256[2]"
        },
        {
          "internalType": "uint256[2][2]",
          "name": "b",
          "type": "uint256[2][2]"
        },
        {
          "internalType": "uint256[2]",
          "name": "c",
          "type": "uint256[2]"
        },
        {
          "internalType": "uint256[2]",
          "name": "input",
          "type": "uint256[2]"
        }
      ],
      "name": "mintProperty",
      "outputs": [],
      "payable": false,
      "stateMutability": "nonpayable",
      "type": "function"
    }
  ],
  "bytecode": "0x60806040523480156200001157600080fd5b506040518060400160405280601081526020017f5665656374726f2050726f7065727479000000000000000000000000000000008152506040518060400160405280600481526020017f564354500000000000000000000000000000000000000000000000000000000081525081816040518060600160405280603f815260200162004a14603f9139336000806101000a81548173ffffffffffffffffffffffffffffffffffffffff021916908373ffffffffffffffffffffffffffffffffffffffff1602179055506000809054906101000a900473ffffffffffffffffffffffffffffffffffffffff1673ffffffffffffffffffffffffffffffffffffffff16600073ffffffffffffffffffffffffffffffffffffffff167f8be0079c531659141344cd1fd0a4f28419497f9722a3daafe3b4186f6b6457e060405160405180910390a360008060146101000a81548160ff021916908315150217905550620001886301ffc9a760e01b620002d360201b60201c565b620001a06380ac58cd60e01b620002d360201b60201c565b620001b863780e9d6360e01b620002d360201b60201c565b82600f9080519060200190620001d092919062000373565b508160109080519060200190620001e992919062000373565b5080601190805190602001906200020292919062000373565b506200021b635b5e139f60e01b620002d360201b60201c565b505050505033601460006101000a81548173ffffffffffffffffffffffffffffffffffffffff021916908373ffffffffffffffffffffffffffffffffffffffff1602179055506040516200026f90620003fa565b604051809103906000f0801580156200028c573d6000803e3d6000fd5b50601360006101000a81548173ffffffffffffffffffffffffffffffffffffffff021916908373ffffffffffffffffffffffffffffffffffffffff16021790555062000430565b63ffffffff60e01b817bffffffffffffffffffffffffffffffffffffffffffffffffffffffff191614156200030757600080fd5b6001806000837bffffffffffffffffffffffffffffffffffffffffffffffffffffffff19167bffffffffffffffffffffffffffffffffffffffffffffffffffffffff1916815260200190815260200160002060006101000a81548160ff02191690831515021790555050565b828054600181600116156101000203166002900490600052602060002090601f016020900481019282601f10620003b657805160ff1916838001178555620003e7565b82800160010185558215620003e7579182015b82811115620003e6578251825591602001919060010190620003c9565b5b509050620003f6919062000408565b5090565b61111d80620038f783390190565b6200042d91905b80821115620004295760008160009055506001016200040f565b5090565b90565b6134b780620004406000396000f3fe608060405234801561001057600080fd5b50600436106101735760003560e01c806342842e0e116100de578063a30f952a11610097578063c87b56dd11610071578063c87b56dd14610b53578063ccd0ef6914610bfa578063e985e9c514610c48578063f2fde38b14610cc457610173565b8063a30f952a14610954578063b88d4fde146109cb578063bdc32be014610ad057610173565b806342842e0e146107445780634f6ccce7146107b25780636352211e146107f457806370a0823114610862578063893d20e8146108ba578063a22cb4651461090457610173565b806318160ddd1161013057806318160ddd146103cf57806323b872dd146103ed57806327dc297e1461045b5780632f745c591461052057806338bbfa501461058257806340c10f19146106de57610173565b806301ffc9a714610178578063081812fc146101dd578063095ea7b31461024b578063150704011461029957806316c38b3c1461031c57806317d7de7c1461034c575b600080fd5b6101c36004803603602081101561018e57600080fd5b8101908080357bffffffffffffffffffffffffffffffffffffffffffffffffffffffff19169060200190929190505050610d08565b604051808215151515815260200191505060405180910390f35b610209600480360360208110156101f357600080fd5b8101908080359060200190929190505050610d70565b604051808273ffffffffffffffffffffffffffffffffffffffff1673ffffffffffffffffffffffffffffffffffffffff16815260200191505060405180910390f35b6102976004803603604081101561026157600080fd5b81019080803573ffffffffffffffffffffffffffffffffffffffff16906020019092919080359060200190929190505050610dbf565b005b6102a1610f99565b6040518080602001828103825283818151815260200191508051906020019080838360005b838110156102e15780820151818401526020810190506102c6565b50505050905090810190601f16801561030e5780820380516001836020036101000a031916815260200191505b509250505060405180910390f35b61034a6004803603602081101561033257600080fd5b8101908080351515906020019092919050505061103b565b005b6103546111fb565b6040518080602001828103825283818151815260200191508051906020019080838360005b83811015610394578082015181840152602081019050610379565b50505050905090810190601f1680156103c15780820380516001836020036101000a031916815260200191505b509250505060405180910390f35b6103d761129d565b6040518082815260200191505060405180910390f35b6104596004803603606081101561040357600080fd5b81019080803573ffffffffffffffffffffffffffffffffffffffff169060200190929190803573ffffffffffffffffffffffffffffffffffffffff169060200190929190803590602001909291905050506112aa565b005b61051e6004803603604081101561047157600080fd5b81019080803590602001909291908035906020019064010000000081111561049857600080fd5b8201836020820111156104aa57600080fd5b803590602001918460018302840111640100000000831117156104cc57600080fd5b91908080601f016020809104026020016040519081016040528093929190818152602001838380828437600081840152601f19601f8201169050808301925050505050505091929192905050506112cd565b005b61056c6004803603604081101561053657600080fd5b81019080803573ffffffffffffffffffffffffffffffffffffffff16906020019092919080359060200190929190505050611310565b6040518082815260200191505060405180910390f35b6106dc6004803603606081101561059857600080fd5b8101908080359060200190929190803590602001906401000000008111156105bf57600080fd5b8201836020820111156105d157600080fd5b803590602001918460018302840111640100000000831117156105f357600080fd5b91908080601f016020809104026020016040519081016040528093929190818152602001838380828437600081840152601f19601f8201169050808301925050505050505091929192908035906020019064010000000081111561065657600080fd5b82018360208201111561066857600080fd5b8035906020019184600183028401116401000000008311171561068a57600080fd5b91908080601f016020809104026020016040519081016040528093929190818152602001838380828437600081840152601f19601f820116905080830192505050505050509192919290505050611383565b005b61072a600480360360408110156106f457600080fd5b81019080803573ffffffffffffffffffffffffffffffffffffffff16906020019092919080359060200190929190505050611388565b604051808215151515815260200191505060405180910390f35b6107b06004803603606081101561075a57600080fd5b81019080803573ffffffffffffffffffffffffffffffffffffffff169060200190929190803573ffffffffffffffffffffffffffffffffffffffff16906020019092919080359060200190929190505050611469565b005b6107de600480360360208110156107c857600080fd5b8101908080359060200190929190505050611489565b6040518082815260200191505060405180910390f35b6108206004803603602081101561080a57600080fd5b81019080803590602001909291905050506114bd565b604051808273ffffffffffffffffffffffffffffffffffffffff1673ffffffffffffffffffffffffffffffffffffffff16815260200191505060405180910390f35b6108a46004803603602081101561087857600080fd5b81019080803573ffffffffffffffffffffffffffffffffffffffff1690602001909291905050506114fa565b6040518082815260200191505060405180910390f35b6108c26115cf565b604051808273ffffffffffffffffffffffffffffffffffffffff1673ffffffffffffffffffffffffffffffffffffffff16815260200191505060405180910390f35b6109526004803603604081101561091a57600080fd5b81019080803573ffffffffffffffffffffffffffffffffffffffff1690602001909291908035151590602001909291905050506115f8565b005b6109c9600480360361018081101561096b57600080fd5b81019080803573ffffffffffffffffffffffffffffffffffffffff1690602001909291908035906020019092919080604001909192919290806080019091929192908060400190919291929080604001909192919290505050611732565b005b610ace600480360360808110156109e157600080fd5b81019080803573ffffffffffffffffffffffffffffffffffffffff169060200190929190803573ffffffffffffffffffffffffffffffffffffffff1690602001909291908035906020019092919080359060200190640100000000811115610a4857600080fd5b820183602082011115610a5a57600080fd5b80359060200191846001830284011164010000000083111715610a7c57600080fd5b91908080601f016020809104026020016040519081016040528093929190818152602001838380828437600081840152601f19601f820116905080830192505050505050509192919290505050611ad5565b005b610ad8611afb565b6040518080602001828103825283818151815260200191508051906020019080838360005b83811015610b18578082015181840152602081019050610afd565b50505050905090810190601f168015610b455780820380516001836020036101000a031916815260200191505b509250505060405180910390f35b610b7f60048036036020811015610b6957600080fd5b8101908080359060200190929190505050611b9d565b6040518080602001828103825283818151815260200191508051906020019080838360005b83811015610bbf578082015181840152602081019050610ba4565b50505050905090810190601f168015610bec5780820380516001836020036101000a031916815260200191505b509250505060405180910390f35b610c4660048036036040811015610c1057600080fd5b8101908080359060200190929190803573ffffffffffffffffffffffffffffffffffffffff169060200190929190505050611c64565b005b610caa60048036036040811015610c5e57600080fd5b81019080803573ffffffffffffffffffffffffffffffffffffffff169060200190929190803573ffffffffffffffffffffffffffffffffffffffff169060200190929190505050611e56565b604051808215151515815260200191505060405180910390f35b610d0660048036036020811015610cda57600080fd5b81019080803573ffffffffffffffffffffffffffffffffffffffff169060200190929190505050611eea565b005b600060016000837bffffffffffffffffffffffffffffffffffffffffffffffffffffffff19167bffffffffffffffffffffffffffffffffffffffffffffffffffffffff1916815260200190815260200160002060009054906101000a900460ff169050919050565b6000610d7b826120f6565b610d8457600080fd5b6003600083815260200190815260200160002060009054906101000a900473ffffffffffffffffffffffffffffffffffffffff169050919050565b610dc8816114bd565b73ffffffffffffffffffffffffffffffffffffffff168273ffffffffffffffffffffffffffffffffffffffff161415610e4c576040517f08c379a000000000000000000000000000000000000000000000000000000000815260040180806020018281038252603981526020018061335d6039913960400191505060405180910390fd5b610e546115cf565b73ffffffffffffffffffffffffffffffffffffffff163373ffffffffffffffffffffffffffffffffffffffff161480610e935750610e923383611e56565b5b610ee8576040517f08c379a00000000000000000000000000000000000000000000000000000000081526004018080602001828103825260368152602001806133b76036913960400191505060405180910390fd5b816003600083815260200190815260200160002060006101000a81548173ffffffffffffffffffffffffffffffffffffffff021916908373ffffffffffffffffffffffffffffffffffffffff160217905550808273ffffffffffffffffffffffffffffffffffffffff163373ffffffffffffffffffffffffffffffffffffffff167f8c5be1e5ebec7d5bd14f71427d1e84f3dd0314c0f7b2291e5b200ac8c7c3b92560405160405180910390a45050565b606060108054600181600116156101000203166002900480601f0160208091040260200160405190810160405280929190818152602001828054600181600116156101000203166002900480156110315780601f1061100657610100808354040283529160200191611031565b820191906000526020600020905b81548152906001019060200180831161101457829003601f168201915b5050505050905090565b3373ffffffffffffffffffffffffffffffffffffffff166000809054906101000a900473ffffffffffffffffffffffffffffffffffffffff1673ffffffffffffffffffffffffffffffffffffffff16146110fd576040517f08c379a00000000000000000000000000000000000000000000000000000000081526004018080602001828103825260208152602001807f4f776e61626c653a2063616c6c6572206973206e6f7420746865206f776e657281525060200191505060405180910390fd5b80600060146101000a81548160ff021916908315150217905550600060149054906101000a900460ff1615611194577f62e78cea01bee320cd4e420270b5ea74000d11b0c9f74754ebdbfc544b05a25833604051808273ffffffffffffffffffffffffffffffffffffffff1673ffffffffffffffffffffffffffffffffffffffff16815260200191505060405180910390a16111f8565b7fff2b959f2bcdb44c7ecb4b16dae055431019d7350607125cfc2b74a06632c90e33604051808273ffffffffffffffffffffffffffffffffffffffff1673ffffffffffffffffffffffffffffffffffffffff16815260200191505060405180910390a15b50565b6060600f8054600181600116156101000203166002900480601f0160208091040260200160405190810160405280929190818152602001828054600181600116156101000203166002900480156112935780601f1061126857610100808354040283529160200191611293565b820191906000526020600020905b81548152906001019060200180831161127657829003601f168201915b5050505050905090565b6000600880549050905090565b6112b43382612168565b6112bd57600080fd5b6112c88383836121fd565b505050565b61130c828260006040519080825280601f01601f1916602001820160405280156113065781602001600182028038833980820191505090505b50611383565b5050565b600061131b836114fa565b821061132657600080fd5b600660008473ffffffffffffffffffffffffffffffffffffffff1673ffffffffffffffffffffffffffffffffffffffff168152602001908152602001600020828154811061137057fe5b9060005260206000200154905092915050565b505050565b60003373ffffffffffffffffffffffffffffffffffffffff166000809054906101000a900473ffffffffffffffffffffffffffffffffffffffff1673ffffffffffffffffffffffffffffffffffffffff161461144c576040517f08c379a00000000000000000000000000000000000000000000000000000000081526004018080602001828103825260208152602001807f4f776e61626c653a2063616c6c6572206973206e6f7420746865206f776e657281525060200191505060405180910390fd5b6114568383612221565b61145f82612242565b6001905092915050565b61148483838360405180602001604052806000815250611ad5565b505050565b600061149361129d565b821061149e57600080fd5b600882815481106114ab57fe5b90600052602060002001549050919050565b60006002600083815260200190815260200160002060009054906101000a900473ffffffffffffffffffffffffffffffffffffffff169050919050565b60008073ffffffffffffffffffffffffffffffffffffffff168273ffffffffffffffffffffffffffffffffffffffff161415611581576040517f08c379a00000000000000000000000000000000000000000000000000000000081526004018080602001828103825260218152602001806133966021913960400191505060405180910390fd5b6115c8600460008473ffffffffffffffffffffffffffffffffffffffff1673ffffffffffffffffffffffffffffffffffffffff168152602001908152602001600020612376565b9050919050565b60008060009054906101000a900473ffffffffffffffffffffffffffffffffffffffff16905090565b3373ffffffffffffffffffffffffffffffffffffffff168273ffffffffffffffffffffffffffffffffffffffff16141561163157600080fd5b80600560003373ffffffffffffffffffffffffffffffffffffffff1673ffffffffffffffffffffffffffffffffffffffff16815260200190815260200160002060008473ffffffffffffffffffffffffffffffffffffffff1673ffffffffffffffffffffffffffffffffffffffff16815260200190815260200160002060006101000a81548160ff0219169083151502179055508173ffffffffffffffffffffffffffffffffffffffff163373ffffffffffffffffffffffffffffffffffffffff167f17307eab39ab6107e8899845ad3d59bd9653f200f220920489ca2b5937696c3183604051808215151515815260200191505060405180910390a35050565b3373ffffffffffffffffffffffffffffffffffffffff166000809054906101000a900473ffffffffffffffffffffffffffffffffffffffff1673ffffffffffffffffffffffffffffffffffffffff16146117f4576040517f08c379a00000000000000000000000000000000000000000000000000000000081526004018080602001828103825260208152602001807f4f776e61626c653a2063616c6c6572206973206e6f7420746865206f776e657281525060200191505060405180910390fd5b60008587604051602001808381526020018273ffffffffffffffffffffffffffffffffffffffff1673ffffffffffffffffffffffffffffffffffffffff1660601b815260140192505050604051602081830303815290604052805190602001209050600073ffffffffffffffffffffffffffffffffffffffff166016600083815260200190815260200160002060010160009054906101000a900473ffffffffffffffffffffffffffffffffffffffff1673ffffffffffffffffffffffffffffffffffffffff161461192e576040517f08c379a000000000000000000000000000000000000000000000000000000000815260040180806020018281038252600f8152602001807f536f6c7574696f6e20657869737473000000000000000000000000000000000081525060200191505060405180910390fd5b601360009054906101000a900473ffffffffffffffffffffffffffffffffffffffff1673ffffffffffffffffffffffffffffffffffffffff1663621e9ec0868686866040518563ffffffff1660e01b81526004018085600260200280828437600081840152601f19601f82011690508083019250505084600260400280828437600081840152601f19601f82011690508083019250505083600260200280828437600081840152601f19601f82011690508083019250505082600260200280828437600081840152601f19601f820116905080830192505050945050505050602060405180830381600087803b158015611a2757600080fd5b505af1158015611a3b573d6000803e3d6000fd5b505050506040513d6020811015611a5157600080fd5b8101908080519060200190929190505050611ab7576040517f08c379a00000000000000000000000000000000000000000000000000000000081526004018080602001828103825260268152602001806134136026913960400191505060405180910390fd5b611ac18787611388565b50611acc8688611c64565b50505050505050565b611ae08484846112aa565b611aec84848484612384565b611af557600080fd5b50505050565b606060118054600181600116156101000203166002900480601f016020809104026020016040519081016040528092919081815260200182805460018160011615610100020316600290048015611b935780601f10611b6857610100808354040283529160200191611b93565b820191906000526020600020905b815481529060010190602001808311611b7657829003601f168201915b5050505050905090565b6060611ba8826120f6565b611bb157600080fd5b601260008381526020019081526020016000208054600181600116156101000203166002900480601f016020809104026020016040519081016040528092919081815260200182805460018160011615610100020316600290048015611c585780601f10611c2d57610100808354040283529160200191611c58565b820191906000526020600020905b815481529060010190602001808311611c3b57829003601f168201915b50505050509050919050565b611c6c61325b565b60405180604001604052808481526020018373ffffffffffffffffffffffffffffffffffffffff168152509050601581908060018154018082558091505090600182039060005260206000209060020201600090919290919091506000820151816000015560208201518160010160006101000a81548173ffffffffffffffffffffffffffffffffffffffff021916908373ffffffffffffffffffffffffffffffffffffffff16021790555050505060008383604051602001808381526020018273ffffffffffffffffffffffffffffffffffffffff1673ffffffffffffffffffffffffffffffffffffffff1660601b81526014019250505060405160208183030381529060405280519060200120905081601660008381526020019081526020016000206000820151816000015560208201518160010160006101000a81548173ffffffffffffffffffffffffffffffffffffffff021916908373ffffffffffffffffffffffffffffffffffffffff1602179055509050507f078793128cefb19aac38a33f9e5df39f67716907f6d747e8065545699e0b2b8d8484604051808381526020018273ffffffffffffffffffffffffffffffffffffffff1673ffffffffffffffffffffffffffffffffffffffff1681526020019250505060405180910390a150505050565b6000600560008473ffffffffffffffffffffffffffffffffffffffff1673ffffffffffffffffffffffffffffffffffffffff16815260200190815260200160002060008373ffffffffffffffffffffffffffffffffffffffff1673ffffffffffffffffffffffffffffffffffffffff16815260200190815260200160002060009054906101000a900460ff16905092915050565b3373ffffffffffffffffffffffffffffffffffffffff166000809054906101000a900473ffffffffffffffffffffffffffffffffffffffff1673ffffffffffffffffffffffffffffffffffffffff1614611fac576040517f08c379a00000000000000000000000000000000000000000000000000000000081526004018080602001828103825260208152602001807f4f776e61626c653a2063616c6c6572206973206e6f7420746865206f776e657281525060200191505060405180910390fd5b600073ffffffffffffffffffffffffffffffffffffffff168173ffffffffffffffffffffffffffffffffffffffff161415612032576040517f08c379a00000000000000000000000000000000000000000000000000000000081526004018080602001828103825260268152602001806133ed6026913960400191505060405180910390fd5b60008060009054906101000a900473ffffffffffffffffffffffffffffffffffffffff169050816000806101000a81548173ffffffffffffffffffffffffffffffffffffffff021916908373ffffffffffffffffffffffffffffffffffffffff1602179055508173ffffffffffffffffffffffffffffffffffffffff168173ffffffffffffffffffffffffffffffffffffffff167f8be0079c531659141344cd1fd0a4f28419497f9722a3daafe3b4186f6b6457e060405160405180910390a35050565b6000806002600084815260200190815260200160002060009054906101000a900473ffffffffffffffffffffffffffffffffffffffff169050600073ffffffffffffffffffffffffffffffffffffffff168173ffffffffffffffffffffffffffffffffffffffff161415915050919050565b600080612174836114bd565b90508073ffffffffffffffffffffffffffffffffffffffff168473ffffffffffffffffffffffffffffffffffffffff1614806121e357508373ffffffffffffffffffffffffffffffffffffffff166121cb84610d70565b73ffffffffffffffffffffffffffffffffffffffff16145b806121f457506121f38185611e56565b5b91505092915050565b61220883838361256d565b61221283826127e5565b61221c8282612983565b505050565b61222b8282612a4a565b6122358282612983565b61223e81612b90565b5050565b61224b816120f6565b6122a0576040517f08c379a000000000000000000000000000000000000000000000000000000000815260040180806020018281038252602781526020018061345c6027913960400191505060405180910390fd5b61234c60118054600181600116156101000203166002900480601f0160208091040260200160405190810160405280929190818152602001828054600181600116156101000203166002900480156123395780601f1061230e57610100808354040283529160200191612339565b820191906000526020600020905b81548152906001019060200180831161231c57829003601f168201915b505050505061234783612bdc565b612d09565b60126000838152602001908152602001600020908051906020019061237292919061328b565b5050565b600081600001549050919050565b60006123a58473ffffffffffffffffffffffffffffffffffffffff16612d4d565b6123b25760019050612565565b60008473ffffffffffffffffffffffffffffffffffffffff1663150b7a02338887876040518563ffffffff1660e01b8152600401808573ffffffffffffffffffffffffffffffffffffffff1673ffffffffffffffffffffffffffffffffffffffff1681526020018473ffffffffffffffffffffffffffffffffffffffff1673ffffffffffffffffffffffffffffffffffffffff16815260200183815260200180602001828103825283818151815260200191508051906020019080838360005b8381101561248d578082015181840152602081019050612472565b50505050905090810190601f1680156124ba5780820380516001836020036101000a031916815260200191505b5095505050505050602060405180830381600087803b1580156124dc57600080fd5b505af11580156124f0573d6000803e3d6000fd5b505050506040513d602081101561250657600080fd5b8101908080519060200190929190505050905063150b7a0260e01b7bffffffffffffffffffffffffffffffffffffffffffffffffffffffff1916817bffffffffffffffffffffffffffffffffffffffffffffffffffffffff1916149150505b949350505050565b612576816114bd565b73ffffffffffffffffffffffffffffffffffffffff168373ffffffffffffffffffffffffffffffffffffffff1614612616576040517f08c379a00000000000000000000000000000000000000000000000000000000081526004018080602001828103825260208152602001807f4552433732313a2066726f6d206973206e6f7420746f6b656e206f776e65727381525060200191505060405180910390fd5b600073ffffffffffffffffffffffffffffffffffffffff168273ffffffffffffffffffffffffffffffffffffffff16141561269c576040517f08c379a00000000000000000000000000000000000000000000000000000000081526004018080602001828103825260238152602001806134396023913960400191505060405180910390fd5b6126a581612d98565b6126ec600460008473ffffffffffffffffffffffffffffffffffffffff1673ffffffffffffffffffffffffffffffffffffffff168152602001908152602001600020612e56565b612733600460008573ffffffffffffffffffffffffffffffffffffffff1673ffffffffffffffffffffffffffffffffffffffff168152602001908152602001600020612e6c565b816002600083815260200190815260200160002060006101000a81548173ffffffffffffffffffffffffffffffffffffffff021916908373ffffffffffffffffffffffffffffffffffffffff160217905550808273ffffffffffffffffffffffffffffffffffffffff168473ffffffffffffffffffffffffffffffffffffffff167fddf252ad1be2c89b69c2b068fc378daa952ba7f163c4a11628f55a4df523b3ef60405160405180910390a4505050565b600061283d6001600660008673ffffffffffffffffffffffffffffffffffffffff1673ffffffffffffffffffffffffffffffffffffffff16815260200190815260200160002080549050612e8f90919063ffffffff16565b905060006007600084815260200190815260200160002054905081811461292a576000600660008673ffffffffffffffffffffffffffffffffffffffff1673ffffffffffffffffffffffffffffffffffffffff16815260200190815260200160002083815481106128aa57fe5b9060005260206000200154905080600660008773ffffffffffffffffffffffffffffffffffffffff1673ffffffffffffffffffffffffffffffffffffffff168152602001908152602001600020838154811061290257fe5b9060005260206000200181905550816007600083815260200190815260200160002081905550505b600660008573ffffffffffffffffffffffffffffffffffffffff1673ffffffffffffffffffffffffffffffffffffffff16815260200190815260200160002080548091906001900361297c919061330b565b5050505050565b600660008373ffffffffffffffffffffffffffffffffffffffff1673ffffffffffffffffffffffffffffffffffffffff168152602001908152602001600020805490506007600083815260200190815260200160002081905550600660008373ffffffffffffffffffffffffffffffffffffffff1673ffffffffffffffffffffffffffffffffffffffff1681526020019081526020016000208190806001815401808255809150509060018203906000526020600020016000909192909190915055505050565b600073ffffffffffffffffffffffffffffffffffffffff168273ffffffffffffffffffffffffffffffffffffffff161415612a8457600080fd5b612a8d816120f6565b15612a9757600080fd5b816002600083815260200190815260200160002060006101000a81548173ffffffffffffffffffffffffffffffffffffffff021916908373ffffffffffffffffffffffffffffffffffffffff160217905550612b30600460008473ffffffffffffffffffffffffffffffffffffffff1673ffffffffffffffffffffffffffffffffffffffff168152602001908152602001600020612e56565b808273ffffffffffffffffffffffffffffffffffffffff16600073ffffffffffffffffffffffffffffffffffffffff167fddf252ad1be2c89b69c2b068fc378daa952ba7f163c4a11628f55a4df523b3ef60405160405180910390a45050565b6008805490506009600083815260200190815260200160002081905550600881908060018154018082558091505090600182039060005260206000200160009091929091909150555050565b60606000821415612c24576040518060400160405280600181526020017f30000000000000000000000000000000000000000000000000000000000000008152509050612d04565b600082905060005b60008214612c4e578080600101915050600a8281612c4657fe5b049150612c2c565b6060816040519080825280601f01601f191660200182016040528015612c835781602001600182028038833980820191505090505b50905060006001830390505b60008614612cfc57600a8681612ca157fe5b0660300160f81b82828060019003935081518110612cbb57fe5b60200101907effffffffffffffffffffffffffffffffffffffffffffffffffffffffffffff1916908160001a905350600a8681612cf457fe5b049550612c8f565b819450505050505b919050565b6060612d458383604051806020016040528060008152506040518060200160405280600081525060405180602001604052806000815250612ed9565b905092915050565b60008060007fc5d2460186f7233c927e7db2dcc703c0e500b653ca82273b7bfad8045d85a47060001b9050833f9150808214158015612d8f57506000801b8214155b92505050919050565b600073ffffffffffffffffffffffffffffffffffffffff166003600083815260200190815260200160002060009054906101000a900473ffffffffffffffffffffffffffffffffffffffff1673ffffffffffffffffffffffffffffffffffffffff1614612e535760006003600083815260200190815260200160002060006101000a81548173ffffffffffffffffffffffffffffffffffffffff021916908373ffffffffffffffffffffffffffffffffffffffff1602179055505b50565b6001816000016000828254019250508190555050565b612e8460018260000154612e8f90919063ffffffff16565b816000018190555050565b6000612ed183836040518060400160405280601e81526020017f536166654d6174683a207375627472616374696f6e206f766572666c6f77000081525061319b565b905092915050565b6060808690506060869050606086905060608690506060869050606081518351855187518951010101016040519080825280601f01601f191660200182016040528015612f355781602001600182028038833980820191505090505b509050606081905060008090506000809050600090505b8851811015612fba57888181518110612f6157fe5b602001015160f81c60f81b838380600101945081518110612f7e57fe5b60200101907effffffffffffffffffffffffffffffffffffffffffffffffffffffffffffff1916908160001a9053508080600101915050612f4c565b600090505b875181101561302d57878181518110612fd457fe5b602001015160f81c60f81b838380600101945081518110612ff157fe5b60200101907effffffffffffffffffffffffffffffffffffffffffffffffffffffffffffff1916908160001a9053508080600101915050612fbf565b600090505b86518110156130a05786818151811061304757fe5b602001015160f81c60f81b83838060010194508151811061306457fe5b60200101907effffffffffffffffffffffffffffffffffffffffffffffffffffffffffffff1916908160001a9053508080600101915050613032565b600090505b8551811015613113578581815181106130ba57fe5b602001015160f81c60f81b8383806001019450815181106130d757fe5b60200101907effffffffffffffffffffffffffffffffffffffffffffffffffffffffffffff1916908160001a90535080806001019150506130a5565b600090505b84518110156131865784818151811061312d57fe5b602001015160f81c60f81b83838060010194508151811061314a57fe5b60200101907effffffffffffffffffffffffffffffffffffffffffffffffffffffffffffff1916908160001a9053508080600101915050613118565b82995050505050505050505095945050505050565b6000838311158290613248576040517f08c379a00000000000000000000000000000000000000000000000000000000081526004018080602001828103825283818151815260200191508051906020019080838360005b8381101561320d5780820151818401526020810190506131f2565b50505050905090810190601f16801561323a5780820380516001836020036101000a031916815260200191505b509250505060405180910390fd5b5060008385039050809150509392505050565b604051806040016040528060008152602001600073ffffffffffffffffffffffffffffffffffffffff1681525090565b828054600181600116156101000203166002900490600052602060002090601f016020900481019282601f106132cc57805160ff19168380011785556132fa565b828001600101855582156132fa579182015b828111156132f95782518255916020019190600101906132de565b5b5090506133079190613337565b5090565b815481835581811115613332578183600052602060002091820191016133319190613337565b5b505050565b61335991905b8082111561335557600081600090555060010161333d565b5090565b9056fe4552433732313a20476976656e20616464726573732063616e206e6f7420626520746865206f776e6572206f662074686520746f6b656e49644552433732313a204f776e657220697320746865207a65726f20616464726573734552433732313a2053656e646572206d75737420626520746865206f776e6572206f722073656e64657220697320617070726f7665644f776e61626c653a206e6577206f776e657220697320746865207a65726f2061646472657373496e76616c6964207768696c6520766572696679696e672e20496e76616c69642050726f6f664552433732313a20496e76616c69642064657374696e6174696f6e20616464726573734552433732314d657461646174613a20746f6b656e496420646f6573206e6f7420657869737473a265627a7a72315820d04bd19d27f9f7f40b6d8acaf0c6a3bbda95bf81a49adb753bd950aadb58b00564736f6c63430005100032608060405234801561001057600080fd5b506110fd806100206000396000f3fe608060405234801561001057600080fd5b506004361061002b5760003560e01c8063621e9ec014610030575b600080fd5b61018f600480360361014081101561004757600080fd5b8101908080604001906002806020026040519081016040528092919082600260200280828437600081840152601f19601f82011690508083019250505050505091929192908060800190600280602002604051908101604052809291906000905b828210156100fc578382604002016002806020026040519081016040528092919082600260200280828437600081840152601f19601f820116905080830192505050505050815260200190600101906100a8565b50505050919291929080604001906002806020026040519081016040528092919082600260200280828437600081840152601f19601f820116905080830192505050505050919291929080604001906002806020026040519081016040528092919082600260200280828437600081840152601f19601f82011690508083019250505050505091929192905050506101a9565b604051808215151515815260200191505060405180910390f35b60006101b3610f4a565b6040518060400160405280876000600281106101cb57fe5b60200201518152602001876001600281106101e257fe5b60200201518152508160000181905250604051806040016040528060405180604001604052808860006002811061021557fe5b602002015160006002811061022657fe5b602002015181526020018860006002811061023d57fe5b602002015160016002811061024e57fe5b6020020151815250815260200160405180604001604052808860016002811061027357fe5b602002015160006002811061028457fe5b602002015181526020018860016002811061029b57fe5b60200201516001600281106102ac57fe5b602002015181525081525081602001819052506040518060400160405280856000600281106102d757fe5b60200201518152602001856001600281106102ee57fe5b60200201518152508160400181905250606060026040519080825280602002602001820160405280156103305781602001602082028038833980820191505090505b50905060008090505b60028110156103785784816002811061034e57fe5b602002015182828151811061035f57fe5b6020026020010181815250508080600101915050610339565b50600061038582846103f0565b14156103e1577f3f3cfdb26fb5f9f1786ab4f1a1f9cd4c0b5e726cbdfc26e495261731aad44e396040518080602001828103825260228152602001806110a76022913960400191505060405180910390a16001925050506103e8565b6000925050505b949350505050565b6000807f30644e72e131a029b85045b68181585d2833e84879b9709143e1f593f0000001905061041e610f7d565b610426610562565b905080608001515160018651011461043d57600080fd5b610445610fc4565b6040518060400160405280600081526020016000815250905060008090505b86518110156104db578387828151811061047a57fe5b60200260200101511061048c57600080fd5b6104cc826104c7856080015160018501815181106104a657fe5b60200260200101518a85815181106104ba57fe5b60200260200101516109b0565b610a44565b91508080600101915050610464565b506104fe8183608001516000815181106104f157fe5b6020026020010151610a44565b90506105448560000151866020015161051684610af7565b85604001516105288a60400151610af7565b876060015161053a8960000151610af7565b8960200151610b91565b610554576001935050505061055c565b600093505050505b92915050565b61056a610f7d565b60405180604001604052807f05abb252e408a47fd1b450e4a585a5e4357877e2733095612e37e4d4f255cbfa81526020017f29bca1f84476aebdbc16b30f00aeb64faf1da15f1ed2517f783b7d216e5bad6e8152508160000181905250604051806040016040528060405180604001604052807f2c4767548601f44f4a3305c08fe94583111d200936ab1feb84a81ecf3ca69e1881526020017f240ec7520e43235544b304cd519e662a930253fbd2e08eff9a8eea980967436b815250815260200160405180604001604052807f2f9a8da6ec618d4b1b6b9ad35382e57f5e594b80a2cf8a277d8035f588314c6681526020017f04bb1370769d649b722c97834d5f823a9fb23452c9794d742d36e793c7d921fe8152508152508160200181905250604051806040016040528060405180604001604052807f091a50aa31b6453bf62d29f43ce1209e43bf6586746acaad269f0feb6e7fc5e281526020017f1978123218ea993fbc813e5135c3ee3a11b7e0fcc38434251e1e23203e62ab6d815250815260200160405180604001604052807f1a250582bdb88b86adbe9e9688510984d445014d54722e4ec989f4ff6816c4bd81526020017f13af5387ac79dcc6c94245e0aff9d6692eb9edcda13eb7f5b2cc7b84962c44158152508152508160400181905250604051806040016040528060405180604001604052807f026761ccd5a31d2e92742a5162920bdfca06f1fb758a334f50d8eecb6412155681526020017f06b19a5a437c4b7e5a29c8e4da43375b59e07a0fe3bb6711b8d5bc1a5f170b21815250815260200160405180604001604052807f0f3fed241f65c2829585bac52711994cf1680609f267426135383e58893b735381526020017f2c246a93165add507376bda54dee228d3a0d46b8f52fdf65fca36658771041758152508152508160600181905250600360405190808252806020026020018201604052801561085157816020015b61083e610fde565b8152602001906001900390816108365790505b50816080018190525060405180604001604052807f12faba9135923e4a09d2882c611fba7f96bbe6c203ac2087d945535c8a91032f81526020017f0f37a0a411f5517437632dbe681f7cd6111c6db6759a75a968f7fbaf89b2646281525081608001516000815181106108c057fe5b602002602001018190525060405180604001604052807f10f5b5ba0959c006d05815d6a5fc34b621b19c0ee7ffaca46833d9dfb0abebfc81526020017f09768faab88eba44b607dfa9c5a0a0cacda4632e8ac2bb2ab5e895c3db95a272815250816080015160018151811061093157fe5b602002602001018190525060405180604001604052807f229265f412250c3c401cb1a8458891d9492e6ab3c7239a0d00102f7ddaa7e84181526020017f15fa7b59fd5d3e2fcd678fc2328f35f641a907e2af78131a8811f828aacb46b681525081608001516002815181106109a257fe5b602002602001018190525090565b6109b8610fc4565b6109c0610ff8565b8360000151816000600381106109d257fe5b6020020181815250508360200151816001600381106109ed57fe5b6020020181815250508281600260038110610a0457fe5b6020020181815250506000606083608084600060076107d05a03f190508060008114610a2f57610a31565bfe5b5080610a3c57600080fd5b505092915050565b610a4c610fc4565b610a5461101a565b836000015181600060048110610a6657fe5b602002018181525050836020015181600160048110610a8157fe5b602002018181525050826000015181600260048110610a9c57fe5b602002018181525050826020015181600360048110610ab757fe5b602002018181525050600060608360c084600060066107d05a03f190508060008114610ae257610ae4565bfe5b5080610aef57600080fd5b505092915050565b610aff610fc4565b60007f30644e72e131a029b85045b68181585d97816a916871ca8d3c208c16d87cfd47905060008360000151148015610b3c575060008360200151145b15610b60576040518060400160405280600081526020016000815250915050610b8c565b60405180604001604052808460000151815260200182856020015181610b8257fe5b0683038152509150505b919050565b600060606004604051908082528060200260200182016040528015610bd057816020015b610bbd610fde565b815260200190600190039081610bb55790505b50905060606004604051908082528060200260200182016040528015610c1057816020015b610bfd61103c565b815260200190600190039081610bf55790505b5090508a82600081518110610c2157fe5b60200260200101819052508882600181518110610c3a57fe5b60200260200101819052508682600281518110610c5357fe5b60200260200101819052508482600381518110610c6c57fe5b60200260200101819052508981600081518110610c8557fe5b60200260200101819052508781600181518110610c9e57fe5b60200260200101819052508581600281518110610cb757fe5b60200260200101819052508381600381518110610cd057fe5b6020026020010181905250610ce58282610cf5565b9250505098975050505050505050565b60008151835114610d0557600080fd5b6000835190506000600682029050606081604051908082528060200260200182016040528015610d445781602001602082028038833980820191505090505b50905060008090505b83811015610eea57868181518110610d6157fe5b602002602001015160000151826000600684020181518110610d7f57fe5b602002602001018181525050868181518110610d9757fe5b602002602001015160200151826001600684020181518110610db557fe5b602002602001018181525050858181518110610dcd57fe5b602002602001015160000151600060028110610de557fe5b6020020151826002600684020181518110610dfc57fe5b602002602001018181525050858181518110610e1457fe5b602002602001015160000151600160028110610e2c57fe5b6020020151826003600684020181518110610e4357fe5b602002602001018181525050858181518110610e5b57fe5b602002602001015160200151600060028110610e7357fe5b6020020151826004600684020181518110610e8a57fe5b602002602001018181525050858181518110610ea257fe5b602002602001015160200151600160028110610eba57fe5b6020020151826005600684020181518110610ed157fe5b6020026020010181815250508080600101915050610d4d565b50610ef3611062565b60006020826020860260208601600060086107d05a03f190508060008114610f1a57610f1c565bfe5b5080610f2757600080fd5b600082600060018110610f3657fe5b602002015114159550505050505092915050565b6040518060600160405280610f5d610fde565b8152602001610f6a61103c565b8152602001610f77610fde565b81525090565b6040518060a00160405280610f90610fde565b8152602001610f9d61103c565b8152602001610faa61103c565b8152602001610fb761103c565b8152602001606081525090565b604051806040016040528060008152602001600081525090565b604051806040016040528060008152602001600081525090565b6040518060600160405280600390602082028038833980820191505090505090565b6040518060800160405280600490602082028038833980820191505090505090565b604051806040016040528061104f611084565b815260200161105c611084565b81525090565b6040518060200160405280600190602082028038833980820191505090505090565b604051806040016040528060029060208202803883398082019150509050509056fe5472616e73616374696f6e207375636365737366756c6c792076657269666965642ea265627a7a72315820a3f465bc52efa3c5fc15632264e360a7862b6aab5f56017ffbb1006e5d1669fe64736f6c6343000510003268747470733a2f2f73332d75732d776573742d322e616d617a6f6e6177732e636f6d2f756461636974792d626c6f636b636861696e2f63617073746f6e652f",
  "source": "pragma solidity >=0.4.21 <0.6.0;\n\nimport 'openzeppelin-solidity/contracts/math/SafeMath.sol';\n\nimport \"./ERC721Mintable.sol\";\nimport \"./Verifier.sol\";\n\n// TODO define another contract named SolnSquareVerifier that inherits from your ERC721Mintable class\ncontract SolnSquareVerifier is VeectroPropertyToken {\n    // TODO define a contract call to the zokrates generated solidity contract <Verifier> or <renamedVerifier>\n    Verifier verifier;\n    address private _owner;\n\n    // TODO define a solutions struct that can hold an index & an address\n    struct Solution {\n        uint256 index;\n        address clientAddress;\n    }\n\n    // TODO define an array of the above struct\n    Solution[] private solutions;\n\n    // TODO define a mapping to store unique solutions submitted\n    mapping(bytes32 => Solution) uniqueSolutions;\n\n    // TODO Create an event to emit when a solution is added\n    event SolutionAdded(uint256 index, address client);\n\n    // Constructor of the SolnSquareVerifier\n    constructor () public VeectroPropertyToken(\"Veectro Property\", \"VCTP\") {\n        _owner = msg.sender;\n        verifier = new Verifier();\n    }\n\n    // TODO Create a function to add the solutions to the array and emit the event\n    function addSolution(uint256 index, address clientAddress) public {\n        Solution memory solution = Solution(\n        {\n        index : index,\n        clientAddress : clientAddress\n        });\n\n        solutions.push(solution);\n\n        bytes32 key = keccak256(abi.encodePacked(index, clientAddress));\n\n        uniqueSolutions[key] = solution;\n\n        emit SolutionAdded(index, clientAddress);\n    }\n\n\n    // TODO Create a function to mint new NFT only after the solution has been verified\n    //  - make sure the solution is unique (has not been used before)\n    //  - make sure you handle metadata as well as tokenSuplly\n    function mintProperty(\n        address to,\n        uint256 tokenId,\n        uint[2] calldata a,\n        uint[2][2] calldata b,\n        uint[2] calldata c,\n        uint[2] calldata input\n    ) external onlyOwner {\n        bytes32 key = keccak256(abi.encodePacked(tokenId, to));\n\n        require(uniqueSolutions[key].clientAddress == address(0), \"Solution exists\");\n        require(verifier.verifyTx(a, b, c, input), \"Invalid while verifying. Invalid Proof\");\n\n        super.mint(to, tokenId);\n        addSolution(tokenId, to);\n    }\n}\n",
  "sourcePath": "/Users/tester/Documents/udacity-blockchain/bdnd_capstone/eth-contracts/contracts/SolnSquareVerifier.sol",
  "compiler": {
    "name": "solc",
    "version": "0.5.16+commit.9c3226ce.Emscripten.clang"
  },
  "schemaVersion": "3.4.11",
  "updatedAt": "2023-01-02T21:04:50.349Z",
  "networkType": "ethereum",
  "devdoc": {
    "methods": {
      "isApprovedForAll(address,address)": {
        "details": "Tells whether an operator is approved by a given owner",
        "params": {
          "operator": "operator address which you want to query the approval of",
          "owner": "owner address which you want to query the approval of"
        },
        "return": "bool whether the given operator is approved by the given owner"
      },
      "setApprovalForAll(address,bool)": {
        "details": "Sets or unsets the approval of a given operator An operator is allowed to transfer all tokens of the sender on their behalf",
        "params": {
          "approved": "representing the status of the approval to be set",
          "to": "operator address to set the approval"
        }
      },
      "supportsInterface(bytes4)": {
        "details": "implement supportsInterface(bytes4) using a lookup table"
      },
      "tokenByIndex(uint256)": {
        "details": "Gets the token ID at a given index of all the tokens in this contract Reverts if the index is greater or equal to the total number of tokens",
        "params": {
          "index": "uint256 representing the index to be accessed of the tokens list"
        },
        "return": "uint256 token ID at the given index of the tokens list"
      },
      "tokenOfOwnerByIndex(address,uint256)": {
        "details": "Gets the token ID at a given index of the tokens list of the requested owner",
        "params": {
          "index": "uint256 representing the index to be accessed of the requested tokens list",
          "owner": "address owning the tokens list to be accessed"
        },
        "return": "uint256 token ID at the given index of the tokens list owned by the requested address"
      },
      "totalSupply()": {
        "details": "Gets the total amount of tokens stored by the contract",
        "return": "uint256 representing the total amount of tokens"
      }
    }
  },
  "userdoc": {
    "methods": {}
  }
}